:0E0000000C9451000C9400000C9400000C9421
:10000E0000000C9400000C9400000C9400000C9462
:10001E0000000C9400000C9400000C9400000C9452
:10002E0000000C9400000C9400000C9400000C9442
:10003E0000000C9400000C9400000C9480000C94B2
:10004E0000000C9400000C9400000C9400000C9422
:10005E0000000C9400000C9400000C9400000C9412
:10006E0000000C9400000C9400000C94000010276B
:10007E00E80364000A0001000010000110000100F6
:10008E0001002D4E414E00494E46000001000C026B
:10009E008E000000F894EE27EFBBF1E0F5BFE5BF50
:1000AE008DE0A2E0BB27ED938A95E9F780E094E01E
:1000BE00A0E0B1E0ED930197E9F7EAE9F0E0859170
:1000CE009591009761F0A591B59105901590BF019E
:1000DE00F00105900D920197E1F7FB01F0CFE0E002
:1000EE00EEBBEFEFEDBFE4E0EEBFC0E0D2E00C946C
:1000FE009A006A937A93EA93FA93EFB7EA93F5D05C
:10010E00EF5FFF4F6F4F7F4FE0930002F0930102BE
:10011E006093020270930302E991EFBFF991E991A6
:10012E00799169911895E0E0E0930402E09305025D
:10013E00E0930602E0930702E1D07AD0E1E0E5BD5C
:10014E00E0E0E6BDE1E0E0936E007894A895109AA9
:10015E0083E48A95F1F71098DBD0E1E4DFD0B59B0C
:10016E00FECFD6D0E1E0DAD0C9D0B59BFECFBDD060
:10017E00A0E0B1E080E090E010D1DF01CB01E6B568
:10018E00F0E06F2F660F660B762FEA0FFB1F681FCE
:10019E00791FE0930802F093090260930A027093AC
:1001AE000B02E0910802F091090260910A0270912F
:1001BE000B0277D1AFE2B9E68CE09CE3A1D1A4E0CB
:1001CE00B2E038D1ED93FD936D937C93E0E8EAB9FC
:1001DE00ACD018F4E0E0EAB926C0A7D010F0B5D044
:1001EE0008F002C0EFEF1DC0B0D010F0BED008F086
:1001FE0002C0E0E216C0B9D080F0A0910402B09126
:10020E0005028091060290910702A93CE0E0BE072C
:10021E00E0E08E07E0E09E0708F002C0E0E101C0DA
:10022E00E0E0E093B300A4E6B0E0B8D18FCFFFCF0B
:10023E00E0E8E0936100E0E0E0936100E1E0E1B925
:10024E00EFEFE2B9E0E0E4B9E5B9E7B9E8B9E0E823
:10025E00EAB9EFEFEBB9E0E0E4BDE5BDE6BDE7BD21
:10026E00E8BDE0938000E093810052D0E0E0E0939F
:10027E008700E0938600E0938900E0938800E09386
:10028E008B00E0938A00E093B600E3E4E093B000C5
:10029E00E9E0E093B100E0E0E093B200E093B30058
:1002AE00E093B400E0936E00E0936F00E093700073
:1002BE00E0936900EDBBE0936800E093C100E0932A
:1002CE00C900E0E8E0BFE0E0E0937B00E0937F0050
:1002DE00E0937A00ECBDE093BC00A895E8E1E093D2
:1002EE006000E8E0E09360000895E0910002F09174
:1002FE00010260910202709103020895E0E0E09322
:10030E000002E0930102E0930202E09303020895DB
:10031E00E0E0E0938500E09384000895E09381008F
:10032E00E0E2E6BBE1E0E6BB0895A0910402B091E5
:10033E0005028091060290910702A333E0E0BE070A
:10034E00E0E08E07E0E09E070895A0910402B091D0
:10035E0005028091060290910702A536E0E0BE07E5
:10036E00E0E08E07E0E09E070895A0910402B091B0
:10037E0005028091060290910702A739E0E0BE07C0
:10038E00E0E08E07E0E09E070895F0956095709589
:10039E00E195FF4F6F4F7F4F08957A9F702D6B9FA2
:1003AE00700DF89F700DE99F700D6A9F602D710D95
:1003BE00FB9F600D711DE89F600D711D8827FA9FD0
:1003CE00F02D610D781FEB9FF00D611D781FEA9FD8
:1003DE00E02DF10D681F781F0895552342F4503813
:1003EE0011F4E0FF04C03196691F791F6BF050E8DD
:1003FE00572711F45F9373C05F3F31F0660F000C07
:10040E0057956795752F08955F9300200AF072C077
:10041E006BC050E8192E1522880F991F9527550F7E
:10042E00879550E8072E0522660F771F7527550F03
:10043E0067950895689401C0E8945F93F2DF703871
:10044E0018F07F3F08F44BC056E1571BAAF45195A4
:10045E0058300EF4593030F0EFEFFFEF6FEF7FE7CB
:10046E0077F91AC077275523B9F0EE0FFF1F661FD5
:10047E00771F5A95D1F710C07727583028F0EF2FF5
:10048E00F62F672F5850F9CF552331F07695679593
:10049E00F795E7955A95D1F700200AF476DF5F912C
:1004AE000895689401C0E894309760407040B1F0B0
:1004BE00002426F0772312F4009467DF172E7EE1D6
:1004CE00112032F07A95EE0FFF1F661F111CF9CF27
:1004DE00EF2FF62F612D5F938ADF5F910895EE2740
:1004EE00FF27BF015F910895EFEFFFEF6FE77FEFFB
:1004FE005F910895EFEFFFEF6FE77FE75F9108954C
:10050E005F9387DF703859F3903849F301240894CC
:10051E00791F23F424F300203AF3ECCF0F921F93AC
:10052E002F933F934F93112722279927689FA0015E
:10053E008F9F302D410D591F6B9F300D411D591F3F
:10054E008E9F27D0BF9F25D06A9F23D0BE9F1DD0E0
:10055E00AF9F1BD0AE9F110D291F391F491F591F69
:10056E00E32FF42F652F522F4F913F912F911F9113
:10057E000F9066232AF0550FEE1FFF1F661F02C055
:10058E0073954BF22ADF5F910895100D211D391FCF
:10059E0002C0200D311D491F591F0895109639F0C4
:1005AE00A89588E893E10197F1F71197C9F7089597
:00000001FF
